:020000040800F2
:100000001833002001010008630F0008690300088D
:10001000610F0008A3020008A11000080000000002
:100020000000000000000000000000000F010008B8
:10003000B302000800000000430200085D10000841
:10004000A3100008650F000885100008551000086F
:10005000C302000825100008B5020008B902000814
:10006000BB020008BD020008BF020008A50200088C
:10007000A7020008A9020008AB020008AD020008B0
:10008000AF020008B1020008A10200089D1000089C
:100090009F1000081701000817010008C10200089E
:1000A000871000088D1000088B10000889100008C8
:1000B0008F10000891100008931000086D030008CD
:1000C0006B030008710300086F0300085710000855
:1000D00059100008951000089710000899100008A2
:1000E000B7020008531000089B100008DFF80CD07E
:1000F00000F054F800480047C31000080006002034
:1001000005480047FEE7FEE7FEE7FEE7FEE7FEE7FD
:10011000FEE7FEE7FEE7FEE7ED000008124C134D98
:10012000256013484FF0010101604FF0020080F399
:100130001488104842680F4802600E4B1868878880
:100140004FF0100847EA08078780D0F800C00CF18C
:10015000240CBCE8FF008CF30988AE4687F30388C3
:1001600062B6304700BF000020ED00E00000F0F074
:100170002C06002030060020D2B201E000F8012B4E
:10018000491EFBD270470022F6E710B513460A4617
:1001900004461946FFF7F0FF204610BD064C074DF8
:1001A00006E0E06840F0010394E807009847103447
:1001B000AC42F6D3FFF79EFF201D0008501D00083B
:1001C00070B58C1810F8015B15F0070301D110F819
:1001D000013B2A1106D110F8012B03E010F8016B46
:1001E00001F8016B5B1EF9D12B0705D40023521EC9
:1001F0000DD401F8013BFAE710F8013BCB1A921C31
:1002000003E013F8015B01F8015B521EF9D5A1422E
:10021000D8D3002070BD0000EFF30580704772B6A0
:100220007047EFF3108072B67047EFF3108062B63C
:10023000704780F31088704716484FF08051016076
:100240007047EFF3108C72B6134A12681AB100B5FA
:1002500090475DF804EBEFF3098020E9F01F0F4DA4
:100260002E683060B7884FF0100827EA0807B7807B
:100270000A484068286087884FF0100847EA080756
:1002800087800168B1E8F01F81F309888CF310883A
:10029000704700BF04ED00E0140600203006002087
:1002A0007047FEE770477047704770477047704768
:1002B0007047704770477047704770477047704786
:1002C00070477047F0B5CC78002204F00F03E406C5
:1002D00001D58C7823430C784FF00F0C14F0FF0FEE
:1002E0004FF0010E1BD005680E880EFA02F426406E
:1002F000A64210D196000CFA06F725EA070703FA82
:1003000006F5CE783D43282E02D0482E02D002E0DA
:10031000446100E00461521C082AE5D305600A88A4
:10032000FF2A1CD94468002202F108060EFA06F5DD
:100330000E882E40AE420ED196000CFA06F7BC4352
:1003400003FA06F7CE783C43282E00D14561CE78DB
:10035000482E00D10561521C082AE5D34460F0BD47
:100360004161704701617047FEE770477047704711
:1003700070474218491E521E824202D922EA0100E9
:100380007047884370470021406000600830491C76
:100390001B29F9D3704710B50446084600F08CF8C5
:1003A0001E2801D9002010BD042800D8042004EB29
:1003B000C000203810BD0000002809D14FF4807221
:1003C00004480129114601D0FFF7CABFFFF7CABF91
:1003D000704700000008014008B50121042000F02A
:1003E000C3FD4FF48070ADF8000003208DF80200CB
:1003F00010208DF8030069460148FFF763FF08BD30
:10040000000801404268C1E9000242681160416091
:1004100070474268C1E9000242681160416070475C
:100420004268C1E900024268116041607047426859
:10043000C1E9000242681160416070474268C1E949
:1004400000024268116041607047D0E900121160FB
:10045000D0E900124A600021416001607047D0E994
:1004600000121160D0E900124A6000214160016071
:100470007047D0E900121160D0E900124A600021F3
:100480004160016070474168814201D1012070479D
:10049000002070474168814201D10120704700204F
:1004A00070474168814201D10120704700207047A8
:1004B0000068FFF7A7BF0000002802DA6FF0704065
:1004C0007047444908423FD010F0FE4F1BD010F057
:1004D000E04F09D0410001D51E207047800001D5B2
:1004E0001D2070471C20704710F0406F05D00001A0
:1004F00001D51B2070471A207047800101D51920B3
:1005000070471820704710F4700F0ED010F4400F91
:1005100005D0000201D517207047162070478002D1
:1005200001D5152070471420704710F4402F05D0D6
:10053000000301D51320704712207047800301D5B6
:10054000112070471020704710F47F4F20D010F416
:10055000704F0ED010F4404F05D0000401D50F208D
:1005600070470E207047800401D50D2070470C2085
:10057000704710F4406F05D0000501D50B2070477F
:100580000A207047800501D5092070470820704770
:1005900010F0F00F0ED010F0C00F05D0000601D5FE
:1005A0000720704706207047800601D50520704758
:1005B0000420704710F00C0F05D0000701D5032070
:1005C000704702207047800701D501207047002046
:1005D000704700000000FF7F2DE9F0410D46064600
:1005E0000024FFF71EFE074636B1002D04DD294624
:1005F000304600F0E1FD04463846FFF71AFE20467B
:10060000BDE8F0812DE9F04115460F46064600246D
:10061000FFF707FE80469EB197B17919091D0FD4E7
:10062000304600F0C9FD4119491E6D1EA94304461C
:10063000884205D0081A40F0804041F8040C0C466E
:100640004046FFF7F6FD2046BDE8F0812DE9F04178
:100650000C4605460127FFF7E4FD064695B18CB12F
:1006600054F8040C410002D520F08040241A103CBC
:100670002146284600F0DCFD070003D1294620462C
:1006800000F012FE3046FFF7D4FD3846BDE8F08199
:100690002DE9F0470F4604004FF0FF3801D0FF2F3F
:1006A00002D84046BDE8F087FFF7BBFD8246C4E9AB
:1006B000004704F108008146FFF765FE04F1E005FC
:1006C000A7F1F0000026C5E9026001464846FFF7A1
:1006D00062FE88B129460068FFF7B0FEE0190849BC
:1006E00040F8106D4660C0E9025100F045FE5046EA
:1006F000FFF79FFD0020D5E75046FFF79AFDD0E7B2
:100700001000008070B5051E4FF000040DD0FFF7FB
:1007100088FD55F8081F21B10C460968044A296074
:100720002260FFF786FD0CB1201D70BD002070BD5A
:10073000A55A5AA570B50C4605004FF001060ED01B
:100740006CB1FFF76EFD29680246241FD1B1601B12
:100750000C38B0FBF1F301FB13039BB901E001205E
:1007600070BDB0FBF1F1686881420BD20849206886
:10077000884201D0012000E0002018B9A86820605C
:100780000026AC601046FFF754FD304670BD0000F7
:10079000A55A5AA570B516460D46040002D00EB1F2
:1007A0000C2D01D2012070BDFFF73BFDF61D034665
:1007B00026F003000C3D2060B5FBF0F0606020B136
:1007C00004F10C000021A06008E01846FFF731FD9D
:1007D000E8E72268491C0244026010466268521E23
:1007E0008A42F6D8002101601846FFF722FD00205A
:1007F00070BDD0E900121160D0E900124A600021FA
:100800004160016070470000054A126852F83110DB
:100810004A68C0E900124A681060486070470000EA
:1008200000060020064902460020096801EBC202CA
:10083000516801E04968401C8A42FBD170470000C2
:1008400000060020084900200A6802EBC0014B683E
:100850008B4204D1401C2028F7D30020704702EBC4
:10086000C00040687047000000060020F8B517007F
:10087000069E0C4605D04FF6FB70864204D91748F9
:10088000F8BD16480930F8BD8CB186B1FFF7C9FC38
:100890000546361DB2B26B463946204600F0EEFDE5
:1008A000060007D02846FFF7C4FC3046F8BD0B48C9
:1008B0000A30F8BD009814304060006000991C3187
:1008C0004960096000992431496009600098C48139
:1008D0002846FFF7AEFC0020F8BD0000030600022A
:1008E0002DE9F0470025441E98468946072C02D37F
:1008F0003C48BDE8F087B9F1000F09D05AB1B8F112
:10090000000F0BD03848006840B136480A30F0E795
:100910003448401CEDE73348801CEAE7FFF781FCD0
:100920003249064604EB4400096800EBC40001EBC1
:100930008004A08810B3208A18B3401E20826189E9
:100940002289206801FB02000168C9F80010608953
:10095000401C80B26081E188884201D10020608122
:1009600004F114000746FFF795FD78B3E089401CB9
:10097000E0813046FFF75DFC2846BAE7194D0E3599
:10098000F7E7B8F1000F05D01948008828B1154DD8
:10099000083DEEE7134D0F35EBE71648424604F1EC
:1009A0001C010768384600F0B3FD3046FFF741FCF4
:1009B00000F0B2F8FFF735FC0646B8884106BED510
:1009C000084D20F04000B880ED1FD2E7FFE7384621
:1009D00000F0D2FD3046FFF72CFC00F09DF800201F
:1009E00087E700000E0600028C0600207406002037
:1009F00018060020300600202DE9F0470025441E8F
:100A0000984617468946072C02D33E48BDE8F08732
:100A1000B9F1000F09D05FB1B8F1000F0BD03A481F
:100A2000006840B137480838F0E73648401CEDE729
:100A30003448801CEAE7FFF7F4FB3449064604EB30
:100A40004400096800EBC40001EB8004A08828B1D1
:100A50002089B84205D22B4D2D1D1FE0294DED1CDC
:100A60001CE0E089F8B1401EE081A189228920685C
:100A700001FB0200C0F80090A089401C80B2A08158
:100A8000E188884201D10020A08104F11C000746C2
:100A9000FFF700FD60B3208A401C20823046FFF73C
:100AA000C8FB2846B2E7B8F1000F05D01848008807
:100AB00028B1144D0B3DF1E7124D6D1DEEE71548C1
:100AC000424604F114010768384600F021FD304623
:100AD000FFF7AFFB00F020F8FFF7A3FB0646B8884E
:100AE0004106C2D5074D20F04000B8800A3DD5E749
:100AF000384600F041FD3046FFF79BFB00F00CF854
:100B0000002083E7110600028C06002074060020F6
:100B1000180600203006002010B5FFF782FB0446BF
:100B2000FFF790FE0A493C3848600968814202D0CC
:100B30000848008820B12046BDE81040FFF779BB87
:100B40002046FFF776FBBDE81040FFF775BB0000BD
:100B5000300600201806002070B52749274E0A28C5
:100B6000096801EB001401D3304670BDFFF759FB53
:100B700005462078B8B16088A0F57F41FE390CD0D9
:100B800004F10800FFF78DFC88B16088401C60808C
:100B90002846FFF74EFB002070BD2846FFF749FBB3
:100BA0001648C01D70BD2846FFF743FBDCE7E06830
:100BB000A0F13C04FFF753FCA08820F00800A080BF
:100BC000400606D5204601F027F8A08820F0400016
:100BD000A0800020A061A088810707D440F0040015
:100BE000A080E18804F13C00FFF70EFE2846FFF7E5
:100BF00020FBFFF791FFCEE77806002001070002F7
:100C000010B50024FFF78AFA204610BD70B50446DF
:100C100000F034F8002829D12068174D00EB80013E
:100C200001EBC000696801EBC004FFF7FAFA064661
:100C3000A08820F0020040F00400A080E18804F1C8
:100C40003C00FFF7E1FDFFF7FDFD05F118013C3821
:100C500048606A695AB12A884AB90968814206D04F
:100C60003046FFF7E6FA00F0BDFC002070BD3046CC
:100C7000FFF7DFFAF9E70000180600202DE9F0473A
:100C80000D465FEA00084FF0FF390AD065B1E86908
:100C900068B1286870B1A8881F280ED94A48BDE8F5
:100CA000F0874948001DFAE74748801EF7E74648A5
:100CB000801CF4E74448401CF1E7A869B0F5205FC8
:100CC00002D941481D30EAE710B94FF40D60A86120
:100CD0000821FFF74EFBA86110214FF49870FFF731
:100CE00048FBA969884202D93748C01CD7E7FFF7FB
:100CF00098FA8246354E364F0EE07868A0F13C04F3
:100D0000FFF7A3FB324804F13C010838FFF77AFBF8
:100D1000E1683068FFF79AFC2D48FFF7B4FB002824
:100D2000EBD02B480838FFF7AEFB10B1264C0E3441
:100D300045E0274808384068A0F13C04FFF785FBF0
:100D40005046FFF776FA27690822A9693068FFF74D
:100D500059FC060029D002463846A96900F09AFFDE
:100D60002060A868A062E868E0622869206368697A
:100D7000E66060630021A869A161E161616202220D
:100D8000A060A280286A00B180200243A280A888C7
:100D9000E0802868C4F85090E1656061E8696166A8
:100DA000A0630020C8F8007079E7FFF73AFA82469E
:100DB000074804F13C010838FFF724FB054C504676
:100DC000FFF737FA20466AE7030200028806002090
:100DD000480600200002000370B506461648006869
:100DE00008B1164870BD1648008808B1154870BD96
:100DF000EEB1FFF716FA124C0546183420683C3065
:100E0000FFF7F7FC2068818821F0040181803146DA
:100E1000206800F013FD2068818841F02001818066
:100E20002846FFF706FAFFF777FE002070BDBDE801
:100E3000704000F02FB800008C0600200D02000367
:100E4000180600200E02000210B5FFF7EAF9044A66
:100E50001188491C1180BDE81040FFF7EAB9000075
:100E60001806002010B5FFF7DCF9094A118821B1F6
:100E7000491E0904090C118003D0BDE81040FFF79A
:100E8000D8B9FFF7D6F9BDE81040FFF745BE00001E
:100E90001806002070B5174CA4F118012068896865
:100EA0000069884201D3144870BDFFF7BAF90546BE
:100EB0002068C088FFF7B6FC012814D920683C30B0
:100EC000FFF7C3FA2068818841F00401818020681F
:100ED000C1883C30FFF798FC2846FFF7AAF9FFF7D6
:100EE0001BFE002070BD2846FFF7A3F90248093019
:100EF00070BD0000300600200702000200B589B076
:100F00000020ADF8040007A00790094800904FF4B6
:100F10000D6006908020089069460648FFF776FE2F
:100F200009B000BD4C65645F5461736B0000000044
:100F3000390F00089006002070B54FF4FA750BE0E9
:100F400054B1002421460020FFF736FA2846FFF767
:100F500043FF002802D1F3E70124F3E770BD704797
:100F6000FEE7704770470000044A0029916901D0EC
:100F7000014300E08143916170470000001002408E
:100F80000C48016841F00101016041680A4A1140C2
:100F900041600168094A11400160016821F4802123
:100FA0000160416821F4FE0141604FF41F0181603E
:100FB00070470000001002400000FFF8FFFFF6FE3F
:100FC000034600205909094A01290AD002290AD0FA
:100FD000516A03F01F02012393400B4200D001200D
:100FE00070471168F5E7116AF3E70000001002404E
:100FF0000B490A6822F480320A600A6822F48022CF
:101000000A60B0F5803F07D0B0F5802F03D10868A3
:1010100040F4A02008607047086840F48030F9E789
:1010200000100240704718B500204FF4A0640090F3
:101030003120FFF7C5FF0099491C0091A14201D062
:101040000028F5D03120FFF7BBFF002800D0012099
:1010500018BD70477047704770470000084810B5CA
:10106000D0E900134A1C43F10001C0E9002100F05F
:10107000EDFD00F00BFDBDE8104000F0D1BB00001D
:101080005806002070477047704770477047704798
:10109000704770477047704770477047FEE770476A
:1010A000FEE7704702E008C8121F08C1002AFAD103
:1010B00070477047002001E001C1121F002AFBD1D8
:1010C000704710B500F04EF808B1012010BD00F0D7
:1010D00003F8FFF795FDFEE710B5FFF751FF4FF45A
:1010E0008030FFF785FFFFF79EFF012801D0002029
:1010F00010BDFFF771F9BDE81040FFF7FFBEFFF725
:101100008BF8FEE70449054A102042F82010401CE5
:10111000FF28FAD9FFF723BFFF10000800000020C6
:10112000FEE7000000B589B024216846FFF72BF8E0
:10113000074800904FF44070069006A007901F20CB
:10114000ADF8040069460648FFF760FD09B000BD30
:101150002111000849646C65436F726530303000BE
:101160002406002010B500F02FFA00F037F900280F
:101170001ED11048007808B1FFF7C4FF00F0EEFB65
:10118000002815D100F030FA002811D100F032F912
:1011900000280DD100F0A4F9002809D100F04CFA84
:1011A000002805D100F06EFDBDE81040FFF7BABF82
:1011B00010BD00001C1D00082DE9F0410746133149
:1011C00021F00305083029460646FFF7E4F8D0363B
:1011D0000CE0446803E0E268AA420AD264688442F0
:1011E000F9D1864201D1002000E008300028F0D17A
:1011F0000024DCB1E16805F11400814204D32A46E1
:101200002146384600F0C6F82046FFF732F920465E
:1012100000F0B2F8E06840F00040E06020F00040EC
:1012200000F01CFC04F11000BDE8F0810020FBE799
:101230002DE9F843054600F1E00740680C46A5F1AA
:1012400010010144461989460A462B463946204674
:10125000009600F06CF810B3E06800281FDA20F068
:101260000040204480462B464A463946009600F00E
:101270005EF8A0B1D8F80800A04210D1BC4211D04D
:1012800000962B464A463946A06800F050F830B127
:10129000A068C16821F000410844A04202D00120AA
:1012A000BDE8F8830020FBE770B50446C0680E4631
:1012B00020F0004000F0BCFBE068083620F0004061
:1012C000E060A568EDB1E96800291ADB204600F06E
:1012D00045F8E86820F000404419E068002805DB84
:1012E0002046FFF7C6F8204600F038F82846FFF7FA
:1012F000C0F83046E968FFF74EF8002816D02946B6
:1013000010E00519E868002805DB2846FFF7B1F86A
:10131000284600F023F83046E168FFF73CF8002843
:1013200004D02146BDE87040FFF788B870BD10B505
:101330008142029C0ED890420CD8C168002904DA80
:1013400001684140491C05D106E00068984201D37C
:10135000A04201D3002010BD012010BD8168C368E8
:10136000CA681A44CA60C168826801448A60002160
:101370000160416081607047C143016004490968B0
:1013800009B1096901E04FF0FF3141607047000089
:101390003006002070B58C180646A160C868801A17
:1013A000E060CA60E06820F000400519AC60E868C1
:1013B000002805DB2846FFF75CF82846FFF7CEFF3C
:1013C00006F10800E168FEF7E6FF002804D0214698
:1013D000BDE87040FFF732B870BD00000449034813
:1013E00008604FF42051FFF753B90000F8060020C1
:1013F000880600202DE9F0411048F021406000608F
:101400000F480068FFF7E8F80C4D2D1F286098B1D1
:10141000002426462F1D296804EB440001EBC0017F
:101420004C6001F8086B3868FEF7F3FF641C0A2C67
:10143000F1D30020BDE8F0810248FBE76C060020F4
:1014400088060020001D000210B50A4800244FF451
:1014500080710068FFF7C0F807490028086007D0CE
:10146000086800EBC400641C40600060202CF7D3C7
:1014700010BD000088060020000600202DE9F04184
:10148000054614481F46164604680020A288CAB1C3
:10149000401C2C340728F9D3072816D02C212046CD
:1014A000FEF771FE0C4805FB06F10068FFF794F8A3
:1014B000206060B1E58026810120A08000203C6092
:1014C000BDE8F081421C0A60E6E70448F8E70348FB
:1014D000801EF5E77406002088060020040600023E
:1014E00010B508484FF49A7421460068FFF774F865
:1014F0000549086020B12146FEF745FE002010BDD9
:10150000024810BD88060020740600200106000273
:101510002DE9F04104463C3017460D460646FFF7DC
:1015200068F9A08820F0040040F40050A08028460C
:10153000FEF7B0FF10B1314628680DE0686804E09E
:10154000E188C288914205D3006C3C3800F13C012F
:10155000A942F5D1C06B3146FEF762FF781C09D075
:10156000A088394640F04000A0802046BDE8F04108
:1015700000F064B9BDE8F08110B54068A0F13C040A
:10158000D0E900121160D0E900124A6000214160E8
:101590000160A08820F40050A080400606D52046B7
:1015A00000F03AFBA08820F04000A080A0888107CE
:1015B00009D440F00400A080E18804F13C00BDE8BB
:1015C0001040FFF721B910BD034908200860044905
:1015D000024808607047000020060020F82E002016
:1015E00084060020FEF728BE2DE9F0410F48A02117
:1015F000406000600E480068FEF7EEFF0B4D2D1FA7
:10160000286088B1002426462F1D286800EB0411AD
:101610004C6001F8086B3868FEF709FF641C0A2C5F
:10162000F3D30020BDE8F0810248FBE77C060020F0
:101630008806002000070002F8B51D4D1D48002651
:10164000E027EE6039460068FEF7C6FF040018D0B8
:101650003946FEF798FD6C60AC6026812146203447
:10166000012020810C602146401C80B220340728D4
:10167000F7D3082264211048FFF78CF820B10F48F7
:10168000F8BD0E48C01EF8BD042000230090084A93
:1016900007211846FFF7EAF810B10848401CF8BDCA
:1016A00000F054F80028FAD00448801CF8BD00006F
:1016B0000406002088060020940600200A03000289
:1016C00030B58179002419B9417931B1022904D0AA
:1016D00001690E4DC160E96809E04169F9E7CA682E
:1016E000C3689A4205D89A1A0C46C2600968002954
:1016F000F5D1016019B1CA68C368D21ACA601CB1B9
:1017000020600221017130BDE860FAE70406002084
:1017100008B500200B4E471E00903B460422694648
:101720003068FFF7DDF80028F7D100990029F4D0E0
:10173000D1E900450448FEF7FDFF002CEDD0284616
:10174000A047EAE7040600209406002000B589B00F
:1017500024216846FEF717FD084800904FF40D60FD
:10176000069007A007900020ADF8040080200890A4
:1017700069460648FFF74AFA09B000BD111700088C
:101780005377745F5461736B0000000028060020DB
:1017900070B51C4E1DE02068F0601B48FEF7B2FFDC
:1017A00005000ED0E0692860A0696860002304226B
:1017B00029463068FFF720F918B129461248FEF78C
:1017C000B9FF607960B1A079401CA0712046FFF795
:1017D00077FFF468002C02D0E0680028DBD070BDF1
:1017E000204600F013F820894FF6F771884201D2A5
:1017F000C01D04E00721B0FBF1F201FB12002081C3
:10180000E7E70000040600209406002003498A68E8
:10181000026088600021017170470000040600200A
:10182000054810B5C06828B1C168491EC16001D122
:10183000FFF7AEFF002010BD04060020F0B4024602
:1018400011F01F034FEA511000D1401ED16C1B4C08
:1018500001F0784101432079184400F01F0060F343
:10186000DF61D164216801EBC00302F144015868D3
:10187000984201D118461DE04438D56CC66C25F05D
:10188000784726F07844BC420AD83C1B05F07845DE
:101890002C43D464846CA4F144009C42EDD108E054
:1018A00026F0784325F078429A1A06F078431A43D6
:1018B000C2644430F0BCFEF7FBBD000050060020BF
:1018C0002DE9F041224E00EB800101EBC00172686E
:1018D00002EBC10400EB800101EBC0003146E76977
:1018E000496801EBC00505F128016D690FC917B101
:1018F000A847206200E0A84720794FF000050006C5
:1019000008D5FEF78EFC014635802069BDE8F04120
:1019100000F016B9FEF785FC3580FEF78AFCFFF76C
:1019200093FAE06918B14068FFF716F9E56120798C
:10193000400707D504F13C00FEF75BFFA08820F0CC
:101940000400A080FFF78EFABDE8F041FFF7E4B88D
:1019500018060020FEF763FCFEE700002DE9F041C9
:10196000304D6820304FAC68641C444321463868D1
:10197000FEF732FEDFF8B4806860E8B32146FEF778
:1019800002FC05F120000024406000600830406047
:101990000060083001264060006004EB8400696844
:1019A00000EBC40001EBC0011E488E800C612830A2
:1019B0003C31FEF77DFD641C072CEED90026EE615C
:1019C000A86800EB800101EBC000696801EBC00072
:1019D00014491831086004610A6811209080096870
:1019E0002020C880FFF730FD4FF480710D46386825
:1019F000FEF7F2FD040000E011E010D02946FEF7EA
:101A0000C2FB08483830046086800020646024608F
:101A1000401C08342028F9D30020BDE8F08140465E
:101A2000FBE70000180600208806002000020003E3
:101A3000074909680969072909D8064A1268002A6E
:101A400005D1054A52F82130181A42F82100704792
:101A5000300600208C060020F82E00200849096876
:101A600000290CD0074A1268002A08D10969072901
:101A700005D8054A52F82130184442F82100704731
:101A8000300600208C060020F82E00202DE9F041C1
:101A90002A4900270879401C00F01F008880096847
:101AA00001EBC0067468B44245D0443C04F14400E4
:101AB000B04206D0E06CA588400108D0E06C401E22
:101AC000E064002F37D0BDE8F041FFF725B804F1FE
:101AD0004400FEF7BAFC28070BD5A08820F00800C8
:101AE000A08004F13C00FEF7B0FC0020A061606221
:101AF00013E0680503D5A08820F480600CE0A804FA
:101B000007D504F13C00FEF7A0FCA08820F40050AB
:101B100002E0A08820F02000A080A80709D4A088B7
:101B200040F00400A080E18804F13C00FEF76CFE68
:101B300001277468B9E7BDE8F08100005006002075
:101B40002DE9F041334F8846064600EB8600796860
:101B500000EBC60001EBC0043A4606EB8600526873
:101B6000A58800EBC60002EBC000690700F13C004D
:101B700006D5FEF73EFEA08820F00400A0800BE012
:101B800042F208010D4207D0FEF75FFC15F0600F2E
:101B900002D0204600F040F8A08820F0020040F07B
:101BA0000100A0804FF0FF3020650020E065FEF7C7
:101BB00049FE184D18353C386860A088C1061AD512
:101BC00004F13C0105F11800FEF772FCB86800EB67
:101BD000800101EBC000796801EBC000286006615C
:101BE0002968A08888802868E168C160A16B81634A
:101BF0000120A08001E0C00707D04046FEF719FB96
:101C0000FFF7F0FC0020BDE8F0814046FEF711FB35
:101C1000F8E700001806002030B40B4BC26C1B68BC
:101C2000D10E03EBC103816C994209D08B6822F07D
:101C3000784223F07844224403F078431A438A60C0
:101C400030BC4430FEF701BC500600200B480A4A65
:101C500001680B48136800688B4204D01160D38878
:101C6000411E19449180918880B2814203D10020A5
:101C70001060FFF70FB970476006002030060020A3
:101C8000580600200248002101600A21C1807047E7
:101C90006006002010B5044601204FF0CA3302E070
:101CA00042F82030401CB0EB910FF9D34FF0CC300C
:101CB000106050184FF0043140F8441D4FF00531CA
:101CC00041604FF0063181604FF00731C1604FF045
:101CD000083101614FF0093141614FF010318161EC
:101CE0004FF01131C1610021C0E908144FF00131FA
:101CF00081624900C1624FF0033101634FF012313C
:101D00004163044981630449C1634FF080710164F8
:101D100010BD000055190008C1180008000000009F
:101D2000501D00080000002000040000C001000851
:101D3000701D00080006002094000000A410000898
:101D4000041E000894060020842C0000B410000833
:101D5000411301010C1008FF10040110A9181343CE
:101D6000020B11085D2401FF01FF01FF01B3000018
:101D70000000000000000000000000000000000063
:101D80000000000000000000000000000000000053
:101D90000000000000000000000000000000000043
:101DA0000000000000000000000000000000000033
:101DB0000000000000000000000000000000000023
:101DC0000000000000000000000000000000000013
:101DD0000000000000000000000000000000000003
:101DE00000000000000000000000000000000000F3
:101DF00000000000000000000000000000000000E3
:041E000000000000DE
:04000005080000ED02
:00000001FF
